{
  "contractName": "EcommerceStore",
  "abi": [
    {
      "inputs": [],
      "stateMutability": "nonpayable",
      "type": "constructor"
    },
    {
      "inputs": [],
      "name": "productIndex",
      "outputs": [
        {
          "internalType": "uint256",
          "name": "",
          "type": "uint256"
        }
      ],
      "stateMutability": "view",
      "type": "function",
      "constant": true
    },
    {
      "inputs": [
        {
          "internalType": "string",
          "name": "_name",
          "type": "string"
        },
        {
          "internalType": "string",
          "name": "_category",
          "type": "string"
        },
        {
          "internalType": "string",
          "name": "_imageLink",
          "type": "string"
        },
        {
          "internalType": "string",
          "name": "_descLink",
          "type": "string"
        },
        {
          "internalType": "uint256",
          "name": "_startTime",
          "type": "uint256"
        },
        {
          "internalType": "uint256",
          "name": "_price",
          "type": "uint256"
        },
        {
          "internalType": "uint256",
          "name": "_productCondition",
          "type": "uint256"
        }
      ],
      "name": "addProductToStore",
      "outputs": [],
      "stateMutability": "nonpayable",
      "type": "function"
    },
    {
      "inputs": [
        {
          "internalType": "uint256",
          "name": "_productId",
          "type": "uint256"
        }
      ],
      "name": "getProduct",
      "outputs": [
        {
          "internalType": "uint256",
          "name": "",
          "type": "uint256"
        },
        {
          "internalType": "string",
          "name": "",
          "type": "string"
        },
        {
          "internalType": "string",
          "name": "",
          "type": "string"
        },
        {
          "internalType": "string",
          "name": "",
          "type": "string"
        },
        {
          "internalType": "string",
          "name": "",
          "type": "string"
        },
        {
          "internalType": "uint256",
          "name": "",
          "type": "uint256"
        },
        {
          "internalType": "uint256",
          "name": "",
          "type": "uint256"
        },
        {
          "internalType": "enum EcommerceStore.ProductCondition",
          "name": "",
          "type": "uint8"
        },
        {
          "internalType": "address",
          "name": "",
          "type": "address"
        }
      ],
      "stateMutability": "view",
      "type": "function",
      "constant": true
    },
    {
      "inputs": [
        {
          "internalType": "uint256",
          "name": "_productId",
          "type": "uint256"
        }
      ],
      "name": "buyProductById",
      "outputs": [],
      "stateMutability": "payable",
      "type": "function",
      "payable": true
    }
  ],
  "bytecode": "0x608060405234801561001057600080fd5b5060008081905550611133806100276000396000f3fe60806040526004361061003f5760003560e01c8063170dd16014610044578063b9db15b41461006d578063c897d5a6146100b2578063e8fd521d146100dd575b600080fd5b34801561005057600080fd5b5061006b60048036038101906100669190610c19565b6100f9565b005b34801561007957600080fd5b50610094600480360381019061008f9190610d17565b6103bf565b6040516100a999989796959493929190610dc1565b60405180910390f35b3480156100be57600080fd5b506100c7610428565b6040516100d49190610da6565b60405180910390f35b6100f760048036038101906100f29190610d17565b61042e565b005b60008081548092919061010b90610fbc565b919050555060006040518061012001604052806000548152602001898152602001888152602001878152602001868152602001858152602001848152602001836001811115610183577f4e487b7100000000000000000000000000000000000000000000000000000000600052602160045260246000fd5b60018111156101bb577f4e487b7100000000000000000000000000000000000000000000000000000000600052602160045260246000fd5b8152602001600073ffffffffffffffffffffffffffffffffffffffff16815250905080600160003373ffffffffffffffffffffffffffffffffffffffff1673ffffffffffffffffffffffffffffffffffffffff168152602001908152602001600020600080548152602001908152602001600020600082015181600001556020820151816001019080519060200190610255929190610a5f565b506040820151816002019080519060200190610272929190610a5f565b50606082015181600301908051906020019061028f929190610a5f565b5060808201518160040190805190602001906102ac929190610a5f565b5060a0820151816005015560c0820151816006015560e08201518160070160006101000a81548160ff02191690836001811115610312577f4e487b7100000000000000000000000000000000000000000000000000000000600052602160045260246000fd5b02179055506101008201518160070160016101000a81548173ffffffffffffffffffffffffffffffffffffffff021916908373ffffffffffffffffffffffffffffffffffffffff16021790555090505033600260008054815260200190815260200160002060006101000a81548173ffffffffffffffffffffffffffffffffffffffff021916908373ffffffffffffffffffffffffffffffffffffffff1602179055505050505050505050565b600060608060608060008060008060006103d88b61067e565b9050806000015181602001518260400151836060015184608001518560a001518660c001518760e00151886101000151995099509950995099509950995099509950509193959799909294969850565b60005481565b60006104398261067e565b9050600073ffffffffffffffffffffffffffffffffffffffff1681610100015173ffffffffffffffffffffffffffffffffffffffff161461047957600080fd5b8060c0015134101561048a57600080fd5b3381610100019073ffffffffffffffffffffffffffffffffffffffff16908173ffffffffffffffffffffffffffffffffffffffff168152505080600160006002600086815260200190815260200160002060009054906101000a900473ffffffffffffffffffffffffffffffffffffffff1673ffffffffffffffffffffffffffffffffffffffff1673ffffffffffffffffffffffffffffffffffffffff168152602001908152602001600020600084815260200190815260200160002060008201518160000155602082015181600101908051906020019061056d929190610a5f565b50604082015181600201908051906020019061058a929190610a5f565b5060608201518160030190805190602001906105a7929190610a5f565b5060808201518160040190805190602001906105c4929190610a5f565b5060a0820151816005015560c0820151816006015560e08201518160070160006101000a81548160ff0219169083600181111561062a577f4e487b7100000000000000000000000000000000000000000000000000000000600052602160045260246000fd5b02179055506101008201518160070160016101000a81548173ffffffffffffffffffffffffffffffffffffffff021916908373ffffffffffffffffffffffffffffffffffffffff1602179055509050505050565b610686610ae5565b600160006002600085815260200190815260200160002060009054906101000a900473ffffffffffffffffffffffffffffffffffffffff1673ffffffffffffffffffffffffffffffffffffffff1673ffffffffffffffffffffffffffffffffffffffff1681526020019081526020016000206000838152602001908152602001600020604051806101200160405290816000820154815260200160018201805461072f90610f8a565b80601f016020809104026020016040519081016040528092919081815260200182805461075b90610f8a565b80156107a85780601f1061077d576101008083540402835291602001916107a8565b820191906000526020600020905b81548152906001019060200180831161078b57829003601f168201915b505050505081526020016002820180546107c190610f8a565b80601f01602080910402602001604051908101604052809291908181526020018280546107ed90610f8a565b801561083a5780601f1061080f5761010080835404028352916020019161083a565b820191906000526020600020905b81548152906001019060200180831161081d57829003601f168201915b5050505050815260200160038201805461085390610f8a565b80601f016020809104026020016040519081016040528092919081815260200182805461087f90610f8a565b80156108cc5780601f106108a1576101008083540402835291602001916108cc565b820191906000526020600020905b8154815290600101906020018083116108af57829003601f168201915b505050505081526020016004820180546108e590610f8a565b80601f016020809104026020016040519081016040528092919081815260200182805461091190610f8a565b801561095e5780601f106109335761010080835404028352916020019161095e565b820191906000526020600020905b81548152906001019060200180831161094157829003601f168201915b5050505050815260200160058201548152602001600682015481526020016007820160009054906101000a900460ff1660018111156109c6577f4e487b7100000000000000000000000000000000000000000000000000000000600052602160045260246000fd5b60018111156109fe577f4e487b7100000000000000000000000000000000000000000000000000000000600052602160045260246000fd5b81526020016007820160019054906101000a900473ffffffffffffffffffffffffffffffffffffffff1673ffffffffffffffffffffffffffffffffffffffff1673ffffffffffffffffffffffffffffffffffffffff16815250509050919050565b828054610a6b90610f8a565b90600052602060002090601f016020900481019282610a8d5760008555610ad4565b82601f10610aa657805160ff1916838001178555610ad4565b82800160010185558215610ad4579182015b82811115610ad3578251825591602001919060010190610ab8565b5b509050610ae19190610b7f565b5090565b6040518061012001604052806000815260200160608152602001606081526020016060815260200160608152602001600081526020016000815260200160006001811115610b5c577f4e487b7100000000000000000000000000000000000000000000000000000000600052602160045260246000fd5b8152602001600073ffffffffffffffffffffffffffffffffffffffff1681525090565b5b80821115610b98576000816000905550600101610b80565b5090565b6000610baf610baa84610e9b565b610e6a565b905082815260208101848484011115610bc757600080fd5b610bd2848285610f48565b509392505050565b600082601f830112610beb57600080fd5b8135610bfb848260208601610b9c565b91505092915050565b600081359050610c13816110e6565b92915050565b600080600080600080600060e0888a031215610c3457600080fd5b600088013567ffffffffffffffff811115610c4e57600080fd5b610c5a8a828b01610bda565b975050602088013567ffffffffffffffff811115610c7757600080fd5b610c838a828b01610bda565b965050604088013567ffffffffffffffff811115610ca057600080fd5b610cac8a828b01610bda565b955050606088013567ffffffffffffffff811115610cc957600080fd5b610cd58a828b01610bda565b9450506080610ce68a828b01610c04565b93505060a0610cf78a828b01610c04565b92505060c0610d088a828b01610c04565b91505092959891949750929550565b600060208284031215610d2957600080fd5b6000610d3784828501610c04565b91505092915050565b610d4981610ee7565b82525050565b610d5881610f36565b82525050565b6000610d6982610ecb565b610d738185610ed6565b9350610d83818560208601610f57565b610d8c816110c1565b840191505092915050565b610da081610f2c565b82525050565b6000602082019050610dbb6000830184610d97565b92915050565b600061012082019050610dd7600083018c610d97565b8181036020830152610de9818b610d5e565b90508181036040830152610dfd818a610d5e565b90508181036060830152610e118189610d5e565b90508181036080830152610e258188610d5e565b9050610e3460a0830187610d97565b610e4160c0830186610d97565b610e4e60e0830185610d4f565b610e5c610100830184610d40565b9a9950505050505050505050565b6000604051905081810181811067ffffffffffffffff82111715610e9157610e90611092565b5b8060405250919050565b600067ffffffffffffffff821115610eb657610eb5611092565b5b601f19601f8301169050602081019050919050565b600081519050919050565b600082825260208201905092915050565b6000610ef282610f0c565b9050919050565b6000819050610f07826110d2565b919050565b600073ffffffffffffffffffffffffffffffffffffffff82169050919050565b6000819050919050565b6000610f4182610ef9565b9050919050565b82818337600083830152505050565b60005b83811015610f75578082015181840152602081019050610f5a565b83811115610f84576000848401525b50505050565b60006002820490506001821680610fa257607f821691505b60208210811415610fb657610fb5611063565b5b50919050565b6000610fc782610f2c565b91507fffffffffffffffffffffffffffffffffffffffffffffffffffffffffffffffff821415610ffa57610ff9611005565b5b600182019050919050565b7f4e487b7100000000000000000000000000000000000000000000000000000000600052601160045260246000fd5b7f4e487b7100000000000000000000000000000000000000000000000000000000600052602160045260246000fd5b7f4e487b7100000000000000000000000000000000000000000000000000000000600052602260045260246000fd5b7f4e487b7100000000000000000000000000000000000000000000000000000000600052604160045260246000fd5b6000601f19601f8301169050919050565b600281106110e3576110e2611034565b5b50565b6110ef81610f2c565b81146110fa57600080fd5b5056fea26469706673582212207760d60657112c57b25aa4b1c803267d17980a11beb8f2eab693dff84794031e64736f6c63430008000033",
  "immutableReferences": {},
  "source": "// SPDX-License-Identifier: UNLICENSED\n\npragma solidity >=0.8.0 <0.9.0;\n\ncontract EcommerceStore {\n\n    enum ProductCondition {NEW, USED}\n\n    uint public productIndex;\n\n    mapping(address => mapping(uint => Product)) stores; \n\n    mapping (uint => address) productIdInStore;\n    struct Product {\n        uint id;\n        string name;\n        string category;\n        string imageLink;\n        string descLink;\n        uint startTime;\n        uint price;\n        ProductCondition condition;\n        address buyer;\n    }\n\n    constructor(){\n        productIndex = 0;\n    }\n\n    function addProductToStore(string memory _name, string memory _category, string memory _imageLink,\n        string memory _descLink, uint _startTime, uint _price, uint _productCondition) public {\n            productIndex++;\n            Product memory newProduct = Product(productIndex, _name, _category, _imageLink, _descLink, _startTime, _price, ProductCondition(_productCondition), address(0));\n            stores[msg.sender][productIndex] = newProduct;\n            productIdInStore[productIndex] = msg.sender;\n    }\n\n    function getProduct(uint _productId) public view returns (uint, string memory, string memory, string memory, string memory, uint, uint, ProductCondition, address) {\n        Product memory productInStore = getProductById(_productId);\n        return (productInStore.id, productInStore.name, productInStore.category, productInStore.imageLink, productInStore.descLink, \n            productInStore.startTime, productInStore.price, productInStore.condition, productInStore.buyer);\n    }\n\n    function buyProductById(uint _productId) payable public {\n        Product memory productInStore = getProductById(_productId);\n        require(productInStore.buyer == address(0));\n        require(msg.value >= productInStore.price);\n        productInStore.buyer = msg.sender;\n        stores[productIdInStore[_productId]][_productId] = productInStore;\n\n    }\n\n    function getProductById(uint _productId) private view returns (Product memory) {\n        return stores[productIdInStore[_productId]][_productId];\n    }\n\n}\n",
  "sourcePath": "/Users/rajapandian/workspace/blockchain/ethereum/ebay-on-ethereum-ipfs-starter-project/contracts/EcommerceStore.sol",
  "compiler": {
    "name": "solc",
    "version": "0.8.0+commit.c7dfd78e.Emscripten.clang"
  },
  "schemaVersion": "3.4.3",
  "updatedAt": "2021-10-28T06:22:52.623Z",
  "networkType": "ethereum",
  "devdoc": {
    "kind": "dev",
    "methods": {},
    "version": 1
  },
  "userdoc": {
    "kind": "user",
    "methods": {},
    "version": 1
  }
}