{
  "contractName": "EcommerceStore",
  "abi": [
    {
      "inputs": [
        {
          "internalType": "address",
          "name": "_arbiter",
          "type": "address"
        }
      ],
      "stateMutability": "nonpayable",
      "type": "constructor"
    },
    {
      "inputs": [],
      "name": "arbiter",
      "outputs": [
        {
          "internalType": "address",
          "name": "",
          "type": "address"
        }
      ],
      "stateMutability": "view",
      "type": "function",
      "constant": true
    },
    {
      "inputs": [],
      "name": "productIndex",
      "outputs": [
        {
          "internalType": "uint256",
          "name": "",
          "type": "uint256"
        }
      ],
      "stateMutability": "view",
      "type": "function",
      "constant": true
    },
    {
      "inputs": [
        {
          "internalType": "string",
          "name": "_name",
          "type": "string"
        },
        {
          "internalType": "string",
          "name": "_category",
          "type": "string"
        },
        {
          "internalType": "string",
          "name": "_imageLink",
          "type": "string"
        },
        {
          "internalType": "string",
          "name": "_descLink",
          "type": "string"
        },
        {
          "internalType": "uint256",
          "name": "_startTime",
          "type": "uint256"
        },
        {
          "internalType": "uint256",
          "name": "_price",
          "type": "uint256"
        },
        {
          "internalType": "uint256",
          "name": "_productCondition",
          "type": "uint256"
        }
      ],
      "name": "addProductToStore",
      "outputs": [],
      "stateMutability": "nonpayable",
      "type": "function"
    },
    {
      "inputs": [
        {
          "internalType": "uint256",
          "name": "_productId",
          "type": "uint256"
        }
      ],
      "name": "getProduct",
      "outputs": [
        {
          "internalType": "uint256",
          "name": "",
          "type": "uint256"
        },
        {
          "internalType": "string",
          "name": "",
          "type": "string"
        },
        {
          "internalType": "string",
          "name": "",
          "type": "string"
        },
        {
          "internalType": "string",
          "name": "",
          "type": "string"
        },
        {
          "internalType": "string",
          "name": "",
          "type": "string"
        },
        {
          "internalType": "uint256",
          "name": "",
          "type": "uint256"
        },
        {
          "internalType": "uint256",
          "name": "",
          "type": "uint256"
        },
        {
          "internalType": "enum EcommerceStore.ProductCondition",
          "name": "",
          "type": "uint8"
        },
        {
          "internalType": "address",
          "name": "",
          "type": "address"
        }
      ],
      "stateMutability": "view",
      "type": "function",
      "constant": true
    },
    {
      "inputs": [
        {
          "internalType": "uint256",
          "name": "_productId",
          "type": "uint256"
        }
      ],
      "name": "buyProductById",
      "outputs": [],
      "stateMutability": "payable",
      "type": "function",
      "payable": true
    },
    {
      "inputs": [
        {
          "internalType": "uint256",
          "name": "_productId",
          "type": "uint256"
        }
      ],
      "name": "escrowInfo",
      "outputs": [
        {
          "internalType": "address",
          "name": "",
          "type": "address"
        },
        {
          "internalType": "address",
          "name": "",
          "type": "address"
        },
        {
          "internalType": "address",
          "name": "",
          "type": "address"
        },
        {
          "internalType": "bool",
          "name": "",
          "type": "bool"
        },
        {
          "internalType": "uint256",
          "name": "",
          "type": "uint256"
        },
        {
          "internalType": "uint256",
          "name": "",
          "type": "uint256"
        }
      ],
      "stateMutability": "view",
      "type": "function",
      "constant": true
    },
    {
      "inputs": [
        {
          "internalType": "uint256",
          "name": "_productId",
          "type": "uint256"
        }
      ],
      "name": "releaseAmountToSeller",
      "outputs": [],
      "stateMutability": "nonpayable",
      "type": "function"
    },
    {
      "inputs": [
        {
          "internalType": "uint256",
          "name": "_productId",
          "type": "uint256"
        }
      ],
      "name": "refundAmountToBuyer",
      "outputs": [],
      "stateMutability": "nonpayable",
      "type": "function"
    }
  ],
  "bytecode": "0x60806040523480156200001157600080fd5b50604051620028043803806200280483398181016040528101906200003791906200009d565b6000808190555080600160006101000a81548173ffffffffffffffffffffffffffffffffffffffff021916908373ffffffffffffffffffffffffffffffffffffffff1602179055505062000117565b6000815190506200009781620000fd565b92915050565b600060208284031215620000b057600080fd5b6000620000c08482850162000086565b91505092915050565b6000620000d682620000dd565b9050919050565b600073ffffffffffffffffffffffffffffffffffffffff82169050919050565b6200010881620000c9565b81146200011457600080fd5b50565b6126dd80620001276000396000f3fe608060405260043610620000865760003560e01c8063c897d5a61162000055578063c897d5a6146200017c578063cc352db714620001ac578063e8fd521d14620001da578063fe25e00a14620001fa5762000086565b8063170dd160146200008b5780638356052514620000b95780639a3a7c691462000102578063b9db15b41462000130575b600080fd5b3480156200009857600080fd5b50620000b76004803603810190620000b19190620011bd565b6200022a565b005b348015620000c657600080fd5b50620000e56004803603810190620000df9190620012ce565b620004fd565b604051620000f996959493929190620013ad565b60405180910390f35b3480156200010f57600080fd5b506200012e6004803603810190620001289190620012ce565b620005d0565b005b3480156200013d57600080fd5b506200015c6004803603810190620001569190620012ce565b62000675565b604051620001739998979695949392919062001484565b60405180910390f35b3480156200018957600080fd5b5062000194620006e0565b604051620001a391906200141a565b60405180910390f35b348015620001b957600080fd5b50620001d86004803603810190620001d29190620012ce565b620006e6565b005b620001f86004803603810190620001f29190620012ce565b6200078b565b005b3480156200020757600080fd5b506200021262000ad5565b60405162000221919062001390565b60405180910390f35b6000808154809291906200023e90620016c4565b919050555060006040518061012001604052806000548152602001898152602001888152602001878152602001868152602001858152602001848152602001836001811115620002b7577f4e487b7100000000000000000000000000000000000000000000000000000000600052602160045260246000fd5b6001811115620002f0577f4e487b7100000000000000000000000000000000000000000000000000000000600052602160045260246000fd5b8152602001600073ffffffffffffffffffffffffffffffffffffffff16815250905080600260003373ffffffffffffffffffffffffffffffffffffffff1673ffffffffffffffffffffffffffffffffffffffff1681526020019081526020016000206000805481526020019081526020016000206000820151816000015560208201518160010190805190602001906200038c92919062000f00565b506040820151816002019080519060200190620003ab92919062000f00565b506060820151816003019080519060200190620003ca92919062000f00565b506080820151816004019080519060200190620003e992919062000f00565b5060a0820151816005015560c0820151816006015560e08201518160070160006101000a81548160ff0219169083600181111562000450577f4e487b7100000000000000000000000000000000000000000000000000000000600052602160045260246000fd5b02179055506101008201518160070160016101000a81548173ffffffffffffffffffffffffffffffffffffffff021916908373ffffffffffffffffffffffffffffffffffffffff16021790555090505033600360008054815260200190815260200160002060006101000a81548173ffffffffffffffffffffffffffffffffffffffff021916908373ffffffffffffffffffffffffffffffffffffffff1602179055505050505050505050565b6000806000806000806004600088815260200190815260200160002060009054906101000a900473ffffffffffffffffffffffffffffffffffffffff1673ffffffffffffffffffffffffffffffffffffffff1663f3d259046040518163ffffffff1660e01b815260040160c06040518083038186803b1580156200058057600080fd5b505afa15801562000595573d6000803e3d6000fd5b505050506040513d601f19601f82011682018060405250810190620005bb919062001127565b95509550955095509550955091939550919395565b6004600082815260200190815260200160002060009054906101000a900473ffffffffffffffffffffffffffffffffffffffff1673ffffffffffffffffffffffffffffffffffffffff166358aad10b336040518263ffffffff1660e01b81526004016200063e919062001390565b600060405180830381600087803b1580156200065957600080fd5b505af11580156200066e573d6000803e3d6000fd5b5050505050565b60006060806060806000806000806000620006908b62000afb565b9050806000015181602001518260400151836060015184608001518560a001518660c001518760e00151886101000151995099509950995099509950995099509950509193959799909294969850565b60005481565b6004600082815260200190815260200160002060009054906101000a900473ffffffffffffffffffffffffffffffffffffffff1673ffffffffffffffffffffffffffffffffffffffff1663a97d1b10336040518263ffffffff1660e01b815260040162000754919062001390565b600060405180830381600087803b1580156200076f57600080fd5b505af115801562000784573d6000803e3d6000fd5b5050505050565b6000620007988262000afb565b9050600073ffffffffffffffffffffffffffffffffffffffff1681610100015173ffffffffffffffffffffffffffffffffffffffff1614620007d957600080fd5b8060c00151341015620007eb57600080fd5b3381610100019073ffffffffffffffffffffffffffffffffffffffff16908173ffffffffffffffffffffffffffffffffffffffff168152505080600260006003600086815260200190815260200160002060009054906101000a900473ffffffffffffffffffffffffffffffffffffffff1673ffffffffffffffffffffffffffffffffffffffff1673ffffffffffffffffffffffffffffffffffffffff1681526020019081526020016000206000848152602001908152602001600020600082015181600001556020820151816001019080519060200190620008d092919062000f00565b506040820151816002019080519060200190620008ef92919062000f00565b5060608201518160030190805190602001906200090e92919062000f00565b5060808201518160040190805190602001906200092d92919062000f00565b5060a0820151816005015560c0820151816006015560e08201518160070160006101000a81548160ff0219169083600181111562000994577f4e487b7100000000000000000000000000000000000000000000000000000000600052602160045260246000fd5b02179055506101008201518160070160016101000a81548173ffffffffffffffffffffffffffffffffffffffff021916908373ffffffffffffffffffffffffffffffffffffffff16021790555090505060003483336003600087815260200190815260200160002060009054906101000a900473ffffffffffffffffffffffffffffffffffffffff16600160009054906101000a900473ffffffffffffffffffffffffffffffffffffffff1660405162000a4e9062000f91565b62000a5d949392919062001437565b6040518091039082f090508015801562000a7b573d6000803e3d6000fd5b509050806004600085815260200190815260200160002060006101000a81548173ffffffffffffffffffffffffffffffffffffffff021916908373ffffffffffffffffffffffffffffffffffffffff160217905550505050565b600160009054906101000a900473ffffffffffffffffffffffffffffffffffffffff1681565b62000b0562000f9f565b600260006003600085815260200190815260200160002060009054906101000a900473ffffffffffffffffffffffffffffffffffffffff1673ffffffffffffffffffffffffffffffffffffffff1673ffffffffffffffffffffffffffffffffffffffff1681526020019081526020016000206000838152602001908152602001600020604051806101200160405290816000820154815260200160018201805462000bb0906200168e565b80601f016020809104026020016040519081016040528092919081815260200182805462000bde906200168e565b801562000c2f5780601f1062000c035761010080835404028352916020019162000c2f565b820191906000526020600020905b81548152906001019060200180831162000c1157829003601f168201915b5050505050815260200160028201805462000c4a906200168e565b80601f016020809104026020016040519081016040528092919081815260200182805462000c78906200168e565b801562000cc95780601f1062000c9d5761010080835404028352916020019162000cc9565b820191906000526020600020905b81548152906001019060200180831162000cab57829003601f168201915b5050505050815260200160038201805462000ce4906200168e565b80601f016020809104026020016040519081016040528092919081815260200182805462000d12906200168e565b801562000d635780601f1062000d375761010080835404028352916020019162000d63565b820191906000526020600020905b81548152906001019060200180831162000d4557829003601f168201915b5050505050815260200160048201805462000d7e906200168e565b80601f016020809104026020016040519081016040528092919081815260200182805462000dac906200168e565b801562000dfd5780601f1062000dd15761010080835404028352916020019162000dfd565b820191906000526020600020905b81548152906001019060200180831162000ddf57829003601f168201915b5050505050815260200160058201548152602001600682015481526020016007820160009054906101000a900460ff16600181111562000e66577f4e487b7100000000000000000000000000000000000000000000000000000000600052602160045260246000fd5b600181111562000e9f577f4e487b7100000000000000000000000000000000000000000000000000000000600052602160045260246000fd5b81526020016007820160019054906101000a900473ffffffffffffffffffffffffffffffffffffffff1673ffffffffffffffffffffffffffffffffffffffff1673ffffffffffffffffffffffffffffffffffffffff16815250509050919050565b82805462000f0e906200168e565b90600052602060002090601f01602090048101928262000f32576000855562000f7e565b82601f1062000f4d57805160ff191683800117855562000f7e565b8280016001018555821562000f7e579182015b8281111562000f7d57825182559160200191906001019062000f60565b5b50905062000f8d91906200103a565b5090565b610e63806200184583390190565b604051806101200160405280600081526020016060815260200160608152602001606081526020016060815260200160008152602001600081526020016000600181111562001017577f4e487b7100000000000000000000000000000000000000000000000000000000600052602160045260246000fd5b8152602001600073ffffffffffffffffffffffffffffffffffffffff1681525090565b5b80821115620010555760008160009055506001016200103b565b5090565b6000620010706200106a8462001573565b6200153f565b9050828152602081018484840111156200108957600080fd5b6200109684828562001649565b509392505050565b600081519050620010af81620017f6565b92915050565b600081519050620010c68162001810565b92915050565b600082601f830112620010de57600080fd5b8135620010f084826020860162001059565b91505092915050565b6000813590506200110a816200182a565b92915050565b60008151905062001121816200182a565b92915050565b60008060008060008060c087890312156200114157600080fd5b60006200115189828a016200109e565b96505060206200116489828a016200109e565b95505060406200117789828a016200109e565b94505060606200118a89828a01620010b5565b93505060806200119d89828a0162001110565b92505060a0620011b089828a0162001110565b9150509295509295509295565b600080600080600080600060e0888a031215620011d957600080fd5b600088013567ffffffffffffffff811115620011f457600080fd5b620012028a828b01620010cc565b975050602088013567ffffffffffffffff8111156200122057600080fd5b6200122e8a828b01620010cc565b965050604088013567ffffffffffffffff8111156200124c57600080fd5b6200125a8a828b01620010cc565b955050606088013567ffffffffffffffff8111156200127857600080fd5b620012868a828b01620010cc565b9450506080620012998a828b01620010f9565b93505060a0620012ac8a828b01620010f9565b92505060c0620012bf8a828b01620010f9565b91505092959891949750929550565b600060208284031215620012e157600080fd5b6000620012f184828501620010f9565b91505092915050565b6200130581620015d6565b82525050565b6200131681620015c2565b82525050565b6200132781620015ea565b82525050565b620013388162001635565b82525050565b60006200134b82620015a6565b620013578185620015b1565b93506200136981856020860162001658565b6200137481620017ce565b840191505092915050565b6200138a816200162b565b82525050565b6000602082019050620013a760008301846200130b565b92915050565b600060c082019050620013c460008301896200130b565b620013d360208301886200130b565b620013e260408301876200130b565b620013f160608301866200131c565b6200140060808301856200137f565b6200140f60a08301846200137f565b979650505050505050565b60006020820190506200143160008301846200137f565b92915050565b60006080820190506200144e60008301876200137f565b6200145d6020830186620012fa565b6200146c6040830185620012fa565b6200147b60608301846200130b565b95945050505050565b6000610120820190506200149c600083018c6200137f565b8181036020830152620014b0818b6200133e565b90508181036040830152620014c6818a6200133e565b90508181036060830152620014dc81896200133e565b90508181036080830152620014f281886200133e565b90506200150360a08301876200137f565b6200151260c08301866200137f565b6200152160e08301856200132d565b620015316101008301846200130b565b9a9950505050505050505050565b6000604051905081810181811067ffffffffffffffff821117156200156957620015686200179f565b5b8060405250919050565b600067ffffffffffffffff8211156200159157620015906200179f565b5b601f19601f8301169050602081019050919050565b600081519050919050565b600082825260208201905092915050565b6000620015cf826200160b565b9050919050565b6000620015e3826200160b565b9050919050565b60008115159050919050565b60008190506200160682620017df565b919050565b600073ffffffffffffffffffffffffffffffffffffffff82169050919050565b6000819050919050565b60006200164282620015f6565b9050919050565b82818337600083830152505050565b60005b83811015620016785780820151818401526020810190506200165b565b8381111562001688576000848401525b50505050565b60006002820490506001821680620016a757607f821691505b60208210811415620016be57620016bd62001770565b5b50919050565b6000620016d1826200162b565b91507fffffffffffffffffffffffffffffffffffffffffffffffffffffffffffffffff82141562001707576200170662001712565b5b600182019050919050565b7f4e487b7100000000000000000000000000000000000000000000000000000000600052601160045260246000fd5b7f4e487b7100000000000000000000000000000000000000000000000000000000600052602160045260246000fd5b7f4e487b7100000000000000000000000000000000000000000000000000000000600052602260045260246000fd5b7f4e487b7100000000000000000000000000000000000000000000000000000000600052604160045260246000fd5b6000601f19601f8301169050919050565b60028110620017f357620017f262001741565b5b50565b6200180181620015c2565b81146200180d57600080fd5b50565b6200181b81620015ea565b81146200182757600080fd5b50565b62001835816200162b565b81146200184157600080fd5b5056fe608060405260405162000e6338038062000e638339818101604052810190620000299190620001a4565b83600381905550826000806101000a81548173ffffffffffffffffffffffffffffffffffffffff021916908373ffffffffffffffffffffffffffffffffffffffff16021790555081600160006101000a81548173ffffffffffffffffffffffffffffffffffffffff021916908373ffffffffffffffffffffffffffffffffffffffff16021790555080600260006101000a81548173ffffffffffffffffffffffffffffffffffffffff021916908373ffffffffffffffffffffffffffffffffffffffff1602179055506000600960006101000a81548160ff0219169083151502179055503460048190555033600960016101000a81548173ffffffffffffffffffffffffffffffffffffffff021916908373ffffffffffffffffffffffffffffffffffffffff16021790555050505050620002b0565b600081519050620001708162000262565b92915050565b60008151905062000187816200027c565b92915050565b6000815190506200019e8162000296565b92915050565b60008060008060808587031215620001bb57600080fd5b6000620001cb878288016200018d565b9450506020620001de8782880162000176565b9350506040620001f18782880162000176565b925050606062000204878288016200015f565b91505092959194509250565b60006200021d8262000238565b9050919050565b6000620002318262000238565b9050919050565b600073ffffffffffffffffffffffffffffffffffffffff82169050919050565b6000819050919050565b6200026d8162000210565b81146200027957600080fd5b50565b620002878162000224565b81146200029357600080fd5b50565b620002a18162000258565b8114620002ad57600080fd5b50565b610ba380620002c06000396000f3fe608060405234801561001057600080fd5b50600436106100b45760003560e01c8063aa8c217c11610071578063aa8c217c14610169578063b8d08db214610187578063c5ce3911146101a5578063d1a52e30146101c3578063f3d25904146101e1578063fe25e00a14610204576100b4565b806308551a53146100b95780630bda4dbf146100d757806358aad10b146100f55780637150d8ae146101115780638da5cb5b1461012f578063a97d1b101461014d575b600080fd5b6100c1610222565b6040516100ce91906109d2565b60405180910390f35b6100df610248565b6040516100ec9190610a69565b60405180910390f35b61010f600480360381019061010a9190610952565b61024e565b005b61011961052f565b60405161012691906109d2565b60405180910390f35b610137610553565b60405161014491906109b7565b60405180910390f35b61016760048036038101906101629190610952565b610579565b005b610171610858565b60405161017e9190610a69565b60405180910390f35b61018f61085e565b60405161019c9190610a69565b60405180910390f35b6101ad610864565b6040516101ba9190610a69565b60405180910390f35b6101cb61086a565b6040516101d89190610a4e565b60405180910390f35b6101e961087d565b6040516101fb969594939291906109ed565b60405180910390f35b61020c610917565b60405161021991906109b7565b60405180910390f35b600160009054906101000a900473ffffffffffffffffffffffffffffffffffffffff1681565b60085481565b3373ffffffffffffffffffffffffffffffffffffffff16600960019054906101000a900473ffffffffffffffffffffffffffffffffffffffff1673ffffffffffffffffffffffffffffffffffffffff16146102a857600080fd5b60001515600960009054906101000a900460ff161515146102c857600080fd5b60008054906101000a900473ffffffffffffffffffffffffffffffffffffffff1673ffffffffffffffffffffffffffffffffffffffff168173ffffffffffffffffffffffffffffffffffffffff16148061036f5750600160009054906101000a900473ffffffffffffffffffffffffffffffffffffffff1673ffffffffffffffffffffffffffffffffffffffff168173ffffffffffffffffffffffffffffffffffffffff16145b806103c75750600260009054906101000a900473ffffffffffffffffffffffffffffffffffffffff1673ffffffffffffffffffffffffffffffffffffffff168173ffffffffffffffffffffffffffffffffffffffff16145b8015610424575060011515600560008373ffffffffffffffffffffffffffffffffffffffff1673ffffffffffffffffffffffffffffffffffffffff16815260200190815260200160002060009054906101000a900460ff16151514155b1561049a576001600560008373ffffffffffffffffffffffffffffffffffffffff1673ffffffffffffffffffffffffffffffffffffffff16815260200190815260200160002060006101000a81548160ff0219169083151502179055506007600081548092919061049490610ade565b91905055505b6002600754141561052c57600160009054906101000a900473ffffffffffffffffffffffffffffffffffffffff1673ffffffffffffffffffffffffffffffffffffffff166108fc6004549081150290604051600060405180830381858888f1935050505015801561050f573d6000803e3d6000fd5b506001600960006101000a81548160ff0219169083151502179055505b50565b60008054906101000a900473ffffffffffffffffffffffffffffffffffffffff1681565b600960019054906101000a900473ffffffffffffffffffffffffffffffffffffffff1681565b3373ffffffffffffffffffffffffffffffffffffffff16600960019054906101000a900473ffffffffffffffffffffffffffffffffffffffff1673ffffffffffffffffffffffffffffffffffffffff16146105d357600080fd5b60001515600960009054906101000a900460ff161515146105f357600080fd5b60008054906101000a900473ffffffffffffffffffffffffffffffffffffffff1673ffffffffffffffffffffffffffffffffffffffff168173ffffffffffffffffffffffffffffffffffffffff16148061069a5750600160009054906101000a900473ffffffffffffffffffffffffffffffffffffffff1673ffffffffffffffffffffffffffffffffffffffff168173ffffffffffffffffffffffffffffffffffffffff16145b806106f25750600260009054906101000a900473ffffffffffffffffffffffffffffffffffffffff1673ffffffffffffffffffffffffffffffffffffffff168173ffffffffffffffffffffffffffffffffffffffff16145b801561074f575060011515600660008373ffffffffffffffffffffffffffffffffffffffff1673ffffffffffffffffffffffffffffffffffffffff16815260200190815260200160002060009054906101000a900460ff16151514155b156107c5576001600660008373ffffffffffffffffffffffffffffffffffffffff1673ffffffffffffffffffffffffffffffffffffffff16815260200190815260200160002060006101000a81548160ff021916908315150217905550600860008154809291906107bf90610ade565b91905055505b600260085414156108555760008054906101000a900473ffffffffffffffffffffffffffffffffffffffff1673ffffffffffffffffffffffffffffffffffffffff166108fc6004549081150290604051600060405180830381858888f19350505050158015610838573d6000803e3d6000fd5b506001600960006101000a81548160ff0219169083151502179055505b50565b60045481565b60075481565b60035481565b600960009054906101000a900460ff1681565b60008060008060008060008054906101000a900473ffffffffffffffffffffffffffffffffffffffff16600160009054906101000a900473ffffffffffffffffffffffffffffffffffffffff16600260009054906101000a900473ffffffffffffffffffffffffffffffffffffffff16600960009054906101000a900460ff16600754600854955095509550955095509550909192939495565b600260009054906101000a900473ffffffffffffffffffffffffffffffffffffffff1681565b60008135905061094c81610b56565b92915050565b60006020828403121561096457600080fd5b60006109728482850161093d565b91505092915050565b61098481610a96565b82525050565b61099381610a84565b82525050565b6109a281610aa8565b82525050565b6109b181610ad4565b82525050565b60006020820190506109cc600083018461098a565b92915050565b60006020820190506109e7600083018461097b565b92915050565b600060c082019050610a02600083018961098a565b610a0f602083018861098a565b610a1c604083018761098a565b610a296060830186610999565b610a3660808301856109a8565b610a4360a08301846109a8565b979650505050505050565b6000602082019050610a636000830184610999565b92915050565b6000602082019050610a7e60008301846109a8565b92915050565b6000610a8f82610ab4565b9050919050565b6000610aa182610ab4565b9050919050565b60008115159050919050565b600073ffffffffffffffffffffffffffffffffffffffff82169050919050565b6000819050919050565b6000610ae982610ad4565b91507fffffffffffffffffffffffffffffffffffffffffffffffffffffffffffffffff821415610b1c57610b1b610b27565b5b600182019050919050565b7f4e487b7100000000000000000000000000000000000000000000000000000000600052601160045260246000fd5b610b5f81610a84565b8114610b6a57600080fd5b5056fea26469706673582212209c70085f880ac8b2888cf2d7e9f9ea1f8ba2147f83d39937355b2d0b2cacf58764736f6c63430008000033a2646970667358221220e274196a8f93453e3a823bd8d9be58b47db9d2022c136035a846dba910b98f3864736f6c63430008000033",
  "immutableReferences": {},
  "source": "// SPDX-License-Identifier: UNLICENSED\n\npragma solidity >=0.8.0 <0.9.0;\nimport './Escrow.sol';\ncontract EcommerceStore {\n\n    enum ProductCondition {NEW, USED}\n\n    uint public productIndex;\n\n    address public arbiter;\n\n    mapping(address => mapping(uint => Product)) stores; \n\n    mapping (uint => address) productIdInStore;\n\n    mapping(uint => address) productEscrow;\n    struct Product {\n        uint id;\n        string name;\n        string category;\n        string imageLink;\n        string descLink;\n        uint startTime;\n        uint price;\n        ProductCondition condition;\n        address buyer;\n    }\n\n    constructor(address _arbiter){\n        productIndex = 0;\n        arbiter = _arbiter;\n    }\n\n    function addProductToStore(string memory _name, string memory _category, string memory _imageLink,\n        string memory _descLink, uint _startTime, uint _price, uint _productCondition) public {\n            productIndex++;\n            Product memory newProduct = Product(productIndex, _name, _category, _imageLink, _descLink, _startTime, _price, ProductCondition(_productCondition), address(0));\n            stores[msg.sender][productIndex] = newProduct;\n            productIdInStore[productIndex] = msg.sender;\n    }\n\n    function getProduct(uint _productId) public view returns (uint, string memory, string memory, string memory, string memory, uint, uint, ProductCondition, address) {\n        Product memory productInStore = getProductById(_productId);\n        return (productInStore.id, productInStore.name, productInStore.category, productInStore.imageLink, productInStore.descLink, \n            productInStore.startTime, productInStore.price, productInStore.condition, productInStore.buyer);\n    }\n\n    function buyProductById(uint _productId) payable public {\n        Product memory productInStore = getProductById(_productId);\n        require(productInStore.buyer == address(0));\n        require(msg.value >= productInStore.price);\n        productInStore.buyer = msg.sender;\n        stores[productIdInStore[_productId]][_productId] = productInStore;\n        Escrow escrow = (new Escrow){value: msg.value}(_productId, payable(msg.sender), payable(productIdInStore[_productId]), arbiter); \n        productEscrow[_productId] = address(escrow);\n    }\n\n    function getProductById(uint _productId) private view returns (Product memory) {\n        return stores[productIdInStore[_productId]][_productId];\n    }\n\n    function escrowInfo(uint _productId) public view returns (address, address, address, bool, uint, uint) {\n        return Escrow(productEscrow[_productId]).escrowInfo();\n    }\n\n    function releaseAmountToSeller(uint _productId) public {\n        Escrow(productEscrow[_productId]).releaseAmountToSeller(msg.sender);\n    }\n\n    function refundAmountToBuyer(uint _productId) public {\n        Escrow(productEscrow[_productId]).refundAmountToBuyer(msg.sender);\n    }\n\n}\n",
  "sourcePath": "/Users/rajapandian/workspace/blockchain/ethereum/ebay-on-ethereum-ipfs-starter-project/contracts/EcommerceStore.sol",
  "compiler": {
    "name": "solc",
    "version": "0.8.0+commit.c7dfd78e.Emscripten.clang"
  },
  "schemaVersion": "3.4.3",
  "updatedAt": "2021-10-28T10:34:49.205Z",
  "networkType": "ethereum",
  "devdoc": {
    "kind": "dev",
    "methods": {},
    "version": 1
  },
  "userdoc": {
    "kind": "user",
    "methods": {},
    "version": 1
  }
}