{
  "contractName": "Escrow",
  "abi": [
    {
      "inputs": [
        {
          "internalType": "uint256",
          "name": "_productId",
          "type": "uint256"
        },
        {
          "internalType": "address payable",
          "name": "_buyer",
          "type": "address"
        },
        {
          "internalType": "address payable",
          "name": "_seller",
          "type": "address"
        },
        {
          "internalType": "address",
          "name": "_arbiter",
          "type": "address"
        }
      ],
      "stateMutability": "payable",
      "type": "constructor"
    },
    {
      "inputs": [],
      "name": "amount",
      "outputs": [
        {
          "internalType": "uint256",
          "name": "",
          "type": "uint256"
        }
      ],
      "stateMutability": "view",
      "type": "function"
    },
    {
      "inputs": [],
      "name": "arbiter",
      "outputs": [
        {
          "internalType": "address",
          "name": "",
          "type": "address"
        }
      ],
      "stateMutability": "view",
      "type": "function"
    },
    {
      "inputs": [],
      "name": "buyer",
      "outputs": [
        {
          "internalType": "address payable",
          "name": "",
          "type": "address"
        }
      ],
      "stateMutability": "view",
      "type": "function"
    },
    {
      "inputs": [],
      "name": "fundsDisbursed",
      "outputs": [
        {
          "internalType": "bool",
          "name": "",
          "type": "bool"
        }
      ],
      "stateMutability": "view",
      "type": "function"
    },
    {
      "inputs": [],
      "name": "owner",
      "outputs": [
        {
          "internalType": "address",
          "name": "",
          "type": "address"
        }
      ],
      "stateMutability": "view",
      "type": "function"
    },
    {
      "inputs": [],
      "name": "productId",
      "outputs": [
        {
          "internalType": "uint256",
          "name": "",
          "type": "uint256"
        }
      ],
      "stateMutability": "view",
      "type": "function"
    },
    {
      "inputs": [],
      "name": "refundCount",
      "outputs": [
        {
          "internalType": "uint256",
          "name": "",
          "type": "uint256"
        }
      ],
      "stateMutability": "view",
      "type": "function"
    },
    {
      "inputs": [],
      "name": "releaseCount",
      "outputs": [
        {
          "internalType": "uint256",
          "name": "",
          "type": "uint256"
        }
      ],
      "stateMutability": "view",
      "type": "function"
    },
    {
      "inputs": [],
      "name": "seller",
      "outputs": [
        {
          "internalType": "address payable",
          "name": "",
          "type": "address"
        }
      ],
      "stateMutability": "view",
      "type": "function"
    },
    {
      "inputs": [],
      "name": "escrowInfo",
      "outputs": [
        {
          "internalType": "address",
          "name": "",
          "type": "address"
        },
        {
          "internalType": "address",
          "name": "",
          "type": "address"
        },
        {
          "internalType": "address",
          "name": "",
          "type": "address"
        },
        {
          "internalType": "bool",
          "name": "",
          "type": "bool"
        },
        {
          "internalType": "uint256",
          "name": "",
          "type": "uint256"
        },
        {
          "internalType": "uint256",
          "name": "",
          "type": "uint256"
        }
      ],
      "stateMutability": "view",
      "type": "function"
    },
    {
      "inputs": [
        {
          "internalType": "address",
          "name": "caller",
          "type": "address"
        }
      ],
      "name": "releaseAmountToSeller",
      "outputs": [],
      "stateMutability": "nonpayable",
      "type": "function"
    },
    {
      "inputs": [
        {
          "internalType": "address",
          "name": "caller",
          "type": "address"
        }
      ],
      "name": "refundAmountToBuyer",
      "outputs": [],
      "stateMutability": "nonpayable",
      "type": "function"
    }
  ],
  "bytecode": "0x608060405260405162000e6338038062000e638339818101604052810190620000299190620001a4565b83600381905550826000806101000a81548173ffffffffffffffffffffffffffffffffffffffff021916908373ffffffffffffffffffffffffffffffffffffffff16021790555081600160006101000a81548173ffffffffffffffffffffffffffffffffffffffff021916908373ffffffffffffffffffffffffffffffffffffffff16021790555080600260006101000a81548173ffffffffffffffffffffffffffffffffffffffff021916908373ffffffffffffffffffffffffffffffffffffffff1602179055506000600960006101000a81548160ff0219169083151502179055503460048190555033600960016101000a81548173ffffffffffffffffffffffffffffffffffffffff021916908373ffffffffffffffffffffffffffffffffffffffff16021790555050505050620002b0565b600081519050620001708162000262565b92915050565b60008151905062000187816200027c565b92915050565b6000815190506200019e8162000296565b92915050565b60008060008060808587031215620001bb57600080fd5b6000620001cb878288016200018d565b9450506020620001de8782880162000176565b9350506040620001f18782880162000176565b925050606062000204878288016200015f565b91505092959194509250565b60006200021d8262000238565b9050919050565b6000620002318262000238565b9050919050565b600073ffffffffffffffffffffffffffffffffffffffff82169050919050565b6000819050919050565b6200026d8162000210565b81146200027957600080fd5b50565b620002878162000224565b81146200029357600080fd5b50565b620002a18162000258565b8114620002ad57600080fd5b50565b610ba380620002c06000396000f3fe608060405234801561001057600080fd5b50600436106100b45760003560e01c8063aa8c217c11610071578063aa8c217c14610169578063b8d08db214610187578063c5ce3911146101a5578063d1a52e30146101c3578063f3d25904146101e1578063fe25e00a14610204576100b4565b806308551a53146100b95780630bda4dbf146100d757806358aad10b146100f55780637150d8ae146101115780638da5cb5b1461012f578063a97d1b101461014d575b600080fd5b6100c1610222565b6040516100ce91906109d2565b60405180910390f35b6100df610248565b6040516100ec9190610a69565b60405180910390f35b61010f600480360381019061010a9190610952565b61024e565b005b61011961052f565b60405161012691906109d2565b60405180910390f35b610137610553565b60405161014491906109b7565b60405180910390f35b61016760048036038101906101629190610952565b610579565b005b610171610858565b60405161017e9190610a69565b60405180910390f35b61018f61085e565b60405161019c9190610a69565b60405180910390f35b6101ad610864565b6040516101ba9190610a69565b60405180910390f35b6101cb61086a565b6040516101d89190610a4e565b60405180910390f35b6101e961087d565b6040516101fb969594939291906109ed565b60405180910390f35b61020c610917565b60405161021991906109b7565b60405180910390f35b600160009054906101000a900473ffffffffffffffffffffffffffffffffffffffff1681565b60085481565b3373ffffffffffffffffffffffffffffffffffffffff16600960019054906101000a900473ffffffffffffffffffffffffffffffffffffffff1673ffffffffffffffffffffffffffffffffffffffff16146102a857600080fd5b60001515600960009054906101000a900460ff161515146102c857600080fd5b60008054906101000a900473ffffffffffffffffffffffffffffffffffffffff1673ffffffffffffffffffffffffffffffffffffffff168173ffffffffffffffffffffffffffffffffffffffff16148061036f5750600160009054906101000a900473ffffffffffffffffffffffffffffffffffffffff1673ffffffffffffffffffffffffffffffffffffffff168173ffffffffffffffffffffffffffffffffffffffff16145b806103c75750600260009054906101000a900473ffffffffffffffffffffffffffffffffffffffff1673ffffffffffffffffffffffffffffffffffffffff168173ffffffffffffffffffffffffffffffffffffffff16145b8015610424575060011515600560008373ffffffffffffffffffffffffffffffffffffffff1673ffffffffffffffffffffffffffffffffffffffff16815260200190815260200160002060009054906101000a900460ff16151514155b1561049a576001600560008373ffffffffffffffffffffffffffffffffffffffff1673ffffffffffffffffffffffffffffffffffffffff16815260200190815260200160002060006101000a81548160ff0219169083151502179055506007600081548092919061049490610ade565b91905055505b6002600754141561052c57600160009054906101000a900473ffffffffffffffffffffffffffffffffffffffff1673ffffffffffffffffffffffffffffffffffffffff166108fc6004549081150290604051600060405180830381858888f1935050505015801561050f573d6000803e3d6000fd5b506001600960006101000a81548160ff0219169083151502179055505b50565b60008054906101000a900473ffffffffffffffffffffffffffffffffffffffff1681565b600960019054906101000a900473ffffffffffffffffffffffffffffffffffffffff1681565b3373ffffffffffffffffffffffffffffffffffffffff16600960019054906101000a900473ffffffffffffffffffffffffffffffffffffffff1673ffffffffffffffffffffffffffffffffffffffff16146105d357600080fd5b60001515600960009054906101000a900460ff161515146105f357600080fd5b60008054906101000a900473ffffffffffffffffffffffffffffffffffffffff1673ffffffffffffffffffffffffffffffffffffffff168173ffffffffffffffffffffffffffffffffffffffff16148061069a5750600160009054906101000a900473ffffffffffffffffffffffffffffffffffffffff1673ffffffffffffffffffffffffffffffffffffffff168173ffffffffffffffffffffffffffffffffffffffff16145b806106f25750600260009054906101000a900473ffffffffffffffffffffffffffffffffffffffff1673ffffffffffffffffffffffffffffffffffffffff168173ffffffffffffffffffffffffffffffffffffffff16145b801561074f575060011515600660008373ffffffffffffffffffffffffffffffffffffffff1673ffffffffffffffffffffffffffffffffffffffff16815260200190815260200160002060009054906101000a900460ff16151514155b156107c5576001600660008373ffffffffffffffffffffffffffffffffffffffff1673ffffffffffffffffffffffffffffffffffffffff16815260200190815260200160002060006101000a81548160ff021916908315150217905550600860008154809291906107bf90610ade565b91905055505b600260085414156108555760008054906101000a900473ffffffffffffffffffffffffffffffffffffffff1673ffffffffffffffffffffffffffffffffffffffff166108fc6004549081150290604051600060405180830381858888f19350505050158015610838573d6000803e3d6000fd5b506001600960006101000a81548160ff0219169083151502179055505b50565b60045481565b60075481565b60035481565b600960009054906101000a900460ff1681565b60008060008060008060008054906101000a900473ffffffffffffffffffffffffffffffffffffffff16600160009054906101000a900473ffffffffffffffffffffffffffffffffffffffff16600260009054906101000a900473ffffffffffffffffffffffffffffffffffffffff16600960009054906101000a900460ff16600754600854955095509550955095509550909192939495565b600260009054906101000a900473ffffffffffffffffffffffffffffffffffffffff1681565b60008135905061094c81610b56565b92915050565b60006020828403121561096457600080fd5b60006109728482850161093d565b91505092915050565b61098481610a96565b82525050565b61099381610a84565b82525050565b6109a281610aa8565b82525050565b6109b181610ad4565b82525050565b60006020820190506109cc600083018461098a565b92915050565b60006020820190506109e7600083018461097b565b92915050565b600060c082019050610a02600083018961098a565b610a0f602083018861098a565b610a1c604083018761098a565b610a296060830186610999565b610a3660808301856109a8565b610a4360a08301846109a8565b979650505050505050565b6000602082019050610a636000830184610999565b92915050565b6000602082019050610a7e60008301846109a8565b92915050565b6000610a8f82610ab4565b9050919050565b6000610aa182610ab4565b9050919050565b60008115159050919050565b600073ffffffffffffffffffffffffffffffffffffffff82169050919050565b6000819050919050565b6000610ae982610ad4565b91507fffffffffffffffffffffffffffffffffffffffffffffffffffffffffffffffff821415610b1c57610b1b610b27565b5b600182019050919050565b7f4e487b7100000000000000000000000000000000000000000000000000000000600052601160045260246000fd5b610b5f81610a84565b8114610b6a57600080fd5b5056fea26469706673582212209c70085f880ac8b2888cf2d7e9f9ea1f8ba2147f83d39937355b2d0b2cacf58764736f6c63430008000033",
  "immutableReferences": {},
  "source": "// SPDX-License-Identifier: UNLICENSED\n\npragma solidity >=0.8.0 <0.9.0;\n\ncontract Escrow {\n    address payable public buyer;\n    address payable public seller;\n    address public arbiter;\n    uint public productId;\n    uint public amount;\n    mapping (address => bool) releaseAmount;\n    mapping(address => bool) refundAmount;\n    uint public releaseCount;\n    uint public refundCount;\n    bool public fundsDisbursed;\n    address public owner;\n\n    modifier onlyOwner() {\n        require(owner == msg.sender);\n        _;\n    }\n\n    constructor(uint _productId, address payable _buyer, address payable _seller, address _arbiter) payable {\n        productId = _productId;\n        buyer = _buyer;\n        seller = _seller;\n        arbiter = _arbiter;\n        fundsDisbursed = false;\n        amount = msg.value;\n        owner = msg.sender;\n    }\n\n    function escrowInfo() public view returns(address, address, address, bool, uint, uint) {\n        return(buyer, seller, arbiter, fundsDisbursed, releaseCount, refundCount);\n    }\n\n    function releaseAmountToSeller(address caller) public onlyOwner {\n        require(fundsDisbursed == false);\n        if ((caller == buyer || caller == seller || caller == arbiter) && releaseAmount[caller] != true) {\n            releaseAmount[caller] = true;\n            releaseCount++;\n        }\n\n        if (releaseCount == 2){\n            seller.transfer(amount);\n            fundsDisbursed = true;\n        }\n    }\n\n    function refundAmountToBuyer(address caller) public onlyOwner {\n        require(fundsDisbursed == false);\n        if ((caller == buyer || caller == seller || caller == arbiter) && refundAmount[caller] != true) {\n            refundAmount[caller] = true;\n            refundCount++;\n        }\n\n        if (refundCount == 2){\n            buyer.transfer(amount);\n            fundsDisbursed = true;\n        }\n    }\n}",
  "sourcePath": "/Users/rajapandian/workspace/blockchain/ethereum/ebay-on-ethereum-ipfs-starter-project/contracts/Escrow.sol",
  "compiler": {
    "name": "solc",
    "version": "0.8.0+commit.c7dfd78e.Emscripten.clang"
  },
  "schemaVersion": "3.4.3",
  "updatedAt": "2021-10-28T12:14:29.569Z",
  "devdoc": {
    "kind": "dev",
    "methods": {},
    "version": 1
  },
  "userdoc": {
    "kind": "user",
    "methods": {},
    "version": 1
  }
}